:1000000020120020050C0000A9530000F10B000095
:10001000F10B0000F10B0000F10B000000000000EC
:10002000000000000000000000000000E90C0000DB
:10003000F10B000000000000910C0000F10B00002B
:10004000750E0000750E0000750E0000750E0000A4
:10005000750E0000750E0000750E0000750E000094
:10006000750E0000750E0000750E0000750E000084
:10007000750E0000750E0000750E0000750E000074
:10008000750E0000750E0000750E0000750E000064
:10009000750E0000750E0000750E0000750E000054
:1000A000750E0000750E0000750E0000750E000044
:1000B000750E0000750E0000750E0000750E000034
:1000C000750E0000750E0000750E0000750E000024
:1000D000750E0000750E0000750E0000750E000014
:1000E000750E0000750E0000750E0000750E000004
:1000F000750E0000750E0000750E0000750E0000F4
:100100007BB972B90029BEBF00204FF0004106E064
:1001100008BF00281CBF6FF000414FF0FF3000F017
:1001200057B8ADF1080C6DE904CE002909DB002BAE
:100130001ADB00F04FF8DDF804E0DDE9022304B03B
:100140007047404261EB4101002B1BDB00F042F89D
:10015000DDF804E0DDE9022304B0404261EB410137
:10016000524263EB43037047524263EB430300F098
:1001700031F8DDF804E0DDE9022304B0404261EB30
:1001800041017047524263EB430300F023F8DDF86E
:1001900004E0DDE9022304B0524263EB43037047FD
:1001A00053B94AB9002908BF00281CBF4FF0FF31DE
:1001B0004FF0FF3000F00CB8ADF1080C6DE904CE43
:1001C00000F008F8DDF804E0DDE9022304B0704730
:1001D000704700BF2DE9F04786468C460846089ECA
:1001E000154674461946002B40F0C2808542B2FA8B
:1001F00082F245D94AB1C2F1200300FA02FC2EFA7C
:1002000003F3954043EA0C0C94404FEA154EA8B214
:10021000BCFBFEF8230C0EFB18CC08FB00F943EAEC
:100220000C43994528D9EB1808F1FF3704D29945BA
:1002300002D9A8F102072B44A3EB0903A4B2B3FB34
:10024000FEFC0EFB1C330CFB00F044EA0344A0420E
:1002500014D92C190CF1FF3304D2A04202D9ACF10D
:1002600002032C44241A43EA07401EB1D440002361
:1002700034607360BDE8F0874746DDE76346F1E729
:1002800092BB431B01214FEA154EAFB2B3FBFEFCFC
:10029000200C0EFB1C330CFB07F840EA0343984587
:1002A00062D9EB180CF1FF3004D2984502D9ACF1B9
:1002B00002002B44A3EB0803A4B2B3FBFEFC0EFB2D
:1002C0001C330CFB07F744EA0344A7424ED92C1910
:1002D0000CF1FF3304D2A74202D9ACF102032C4443
:1002E000E41B43EA0040C0E7C2F1200320FA03F117
:1002F000954090402EFA03F303434FEA154EAFB2F8
:10030000B1FBFEFC0EFB1C10190C0CFB07F841EABC
:100310000041884504FA02F422D969180CF1FF3033
:1003200004D2884502D9ACF102002944A1EB0801AE
:100330009BB2B1FBFEFC0EFB1C110CFB07F743EA62
:1003400001439F420ED9EB180CF1FF3104D29F42BA
:1003500002D9ACF102012B44DB1B41EA004192E7D8
:100360006046E3E76146F7E76046A3E76346B7E721
:10037000834206D916B9002108467BE7C6E900E0AA
:10038000F9E7B3FA83F78FB9834201D3724508D8EE
:10039000BEEB020460EB030301209C461EB9002162
:1003A00068E73846FAE7C6E9004CF8E7C7F1200CE1
:1003B000BB4022FA0CF41C432EFA0CF120FA0CF389
:1003C000B84001434FEA14490EFA07F5B3FBF9F8B8
:1003D0001FFA84FE09FB18300B0C08FB0EFA43EAE7
:1003E00000439A4502FA07F240D9E31808F1FF30BA
:1003F00004D29A4502D9A8F102002344A3EB0A03D0
:1004000089B2B3FBF9F809FB183308FB0EFE41EA89
:1004100003418E452CD9611808F1FF3304D28E4573
:1004200002D9A8F10203214443EA0040A0FB02984C
:10043000A1EB0E014145CE46434602D306D14D45C0
:1004400004D2B9EB020E68EB04030138002EA6D0EB
:10045000B5EB0E0261EB030101FA0CFC22FA07F383
:100460004CEA0303F940C6E9003198E74046C5E786
:100470004346D9E700000000032973B5054614463A
:1004800060D8002A40D0072A5CD15A681C683848D6
:10049000D1171346C4FB0031012B71F1000225DB9B
:1004A00000F56E1000F65D7018182FA3D3E9002335
:1004B00041F10001FFF724FE80B202281ED004287B
:1004C0001ED008281ED0102833D1032329492A69B9
:1004D00051F823101161526814691B013022232145
:1004E0002846A44602B0BDE870406047224818186C
:1004F00061F100011CA3D3E90023DBE70023E5E75A
:100500000123E3E70223E1E71A881C4B33F8021BBF
:100510008A420BD12E6973680DF107029B68202176
:1005200028469847002807DA02B070BD01340B2C2A
:10053000ECD16FF01500F7E79DF80720130704D4FE
:10054000082C05D16FF08500EEE70A2C08BF0924BE
:10055000736802F00F0242EA0412DB68D2B2202173
:1005600028469847E0E700BF3AA395000000000046
:1005700040420F004C000020632EB5FF146A0000BB
:100580002DE9F74F2C4C2D492D482E4D04F058FCE9
:10059000A6682946F369204698476D6815F002055C
:1005A00043D0336A022120469847021E03DA2648C8
:1005B0004B2104F045FC25481F4DDFF8948004F0E2
:1005C0003FFCA6687F21736928469847021E03DA1C
:1005D0002048532104F034FC736828469847021ED3
:1005E00003DA5821404604F02BFC1B4FDFF86C90D7
:1005F000DFF86CA0002657F8042BA36800920022B5
:10060000D3F808B011464B462846D847021E03DAF5
:100610002B21504604F014FC45F69A1000210136B7
:1006200003F06CFF052EE6D1CBE70E4804F008FC82
:10063000284603B0BDE8F08FEC6500002A6A000090
:100640003A6A0000080300207C6A0000A46A0000E7
:10065000D36A0000AD6A0000C8670000DC670000D4
:10066000F76A0000576A0000014B1B68184700BF7B
:1006700000000020014B1860704700BF0000002000
:1006800030B585B004460D4610220021684605F0BD
:1006900030FF02238DF802302A46044B0193214695
:1006A000684604F083F905B030BD00BF690600005C
:1006B00080B505460E461746984603F039FF0346B7
:1006C00005F020FFDFF81890044649F80030424654
:1006D00030463946A84754F8090000F0ABFA00BF8D
:1006E000080000002DE9F047058B044628079046D6
:1006F00011D4022905F0070540F0CD80204604F012
:1007000015FC78B10138218B042811D8DFE800F0FE
:10071000C3106D85950001290CBF45F0100545F00B
:100720002005258388F31188BFF36F8FBDE8F0871C
:1007300001F0070AAA4500F0A6800027B9463E4608
:10074000A368002B00F0BD8041F00801218388F3ED
:100750001188BFF36F8FA168002900F0BB800D687E
:10076000002900F0B780D1F8048033465246204675
:10077000C047002D76D02B6829461D46F0E701F0D2
:1007800007035A1F012A1BD8002221F00701062B5C
:10079000276889B2C4E9002209D13B4603E0628B95
:1007A000013262831B68002BF9D141F002012183E1
:1007B000204604F0BBFB00287BD041F0200177E00D
:1007C000042B0AD121F0070189B22183204604F0CD
:1007D000ADFB10B141F020012183218B01F0070A0C
:1007E000AA4550D00027B946AAE7236921F007019E
:1007F00041F00601062DD3F8009021832DD1B9F1E7
:10080000000F40D041F00801218388F31188BFF325
:100810006F8F3A492046C84729E021F00701236934
:1008200041F0040189B2042DD3F804902183E6D06D
:1008300000273E464FF0040A82E721F007012369B2
:1008400041F0050189B2052DD3F808902183D6D057
:1008500000273E464FF0050A72E700273E464FF05C
:10086000060A6DE72B4687E7B9F1000FD1D14FF0AB
:100870002003EFF3118883F31288BFF36F8F238B6C
:1008800023F008032383258BEA062ED525F01003D9
:10089000238305F007056669218B002EBFF66FAF35
:1008A00000232768C4E9003321F0070141F001016A
:1008B0002183218B01F0070AAA454FF000097FF43C
:1008C0003FAF002F9BD041F00801218388F31188AE
:1008D000BFF36F8F002FC7D03D683946334652466D
:1008E000204604F04FFB2F46F4E7AB067FF51AAF26
:1008F00025F02003238305F00705FFE6B14F000034
:1009000001F0E6BD30BFFFF7FDBF00BF114B124A3B
:100910002DE9F041D518DFF84480013DB5FBF3F532
:100920005D430F4B08EB0304013CB4FBF3F403FB02
:1009300004540E1B07460B49304605F0CCFD7019D8
:1009400042460021083E05F0D4FD7E6604F1080011
:10095000BDE8F0810100000000000000040000007C
:1009600004000000BC670000044B99685869884285
:1009700003D003494FF080520A6070479004002072
:1009800004ED00E0134B9A6A12F0007F9A6A14BFDC
:100990001E201D2012F0807F9A6A18BF1F2012F4BB
:1009A000002F9A6A18BF212012F4802F9A6A18BF6C
:1009B000222012F4003F9A6A18BF232012F4803FCD
:1009C0009A6A6FEA02426FEA12429A6218BF2420C2
:1009D000704700BF00ED00E010B5194B0246986A61
:1009E0009C6A10F4805F14BF1720162014F4006F67
:1009F0009C6A18BF1820A40509D5986B986A000452
:100A000004D51AB19A6A22F400429A6219200C4B5A
:100A10009A6A12F4806F9A6A18BF1A20D2050CD411
:100A20009B6A13F4005F18BF1C20054A936A43F4C5
:100A30007F43936200230B7010BD1B20F5E700BFBE
:100A400000ED00E010B51C4B0246986A9C6A10F05D
:100A5000100F14BF1120102014F0080F9C6A18BF4B
:100A60001220A40709D5586B986A000604D51AB15C
:100A70009A6A22F080029A6213200F4B9A6A12F04F
:100A8000010F9A6A18BF142012F0200F9A6A18BF3B
:100A90001520D40658BF9B6A074B9A6A920642BF3C
:100AA0005A6A22F400525A629A6A42F0FF029A622B
:100AB00000230B7010BD00BF00ED00E0F0B5474B08
:100AC0005B688BB00446C3F30803002585F31188E7
:100AD000BFF36F8F02F07F40B0F17F4F11D102F072
:100AE0000C0008280DD010074CBF0C460125002231
:100AF000033B8DF80720032B05D8DFE803F02462C1
:100B0000665F2C46F3E700239DF80720CAB902AEC2
:100B100004F1200720686168324603C20834BC42F1
:100B20001646F7D1099A002D53D0C2F3080121B916
:100B30006FEA52226FEA4222099202A9184604F093
:100B40002DFC0BB0F0BD254BDA6A9107DBD4DA6AD5
:100B5000002AD8DBDA6A5200D5D55A69A16942F475
:100B600080725A61BFF34F8FBFF36F8F5A6931F8AC
:100B7000021C22F480725A61BFF34F8FBFF36F8F54
:100B80004DF60272914209D09A6AD2B242B10DF189
:100B900007010120FFF756FF0346B5E72368B3E7D7
:100BA0009A6A12F47F4F05D00DF107010120FFF77B
:100BB00013FFF1E79B6AB3F5803FA4D3FFF7E2FE92
:100BC000EAE70DF107010020E4E70DF1070100203D
:100BD000EDE722F4FF7222F00102ADE700ED00E044
:100BE000024A536943F010035361704700ED00E07F
:100BF000EFF30880EFF3098101B57246FFF75EFF5E
:100C000001BD00BFFFF77CFE202080F3118808485B
:100C10004FF40061401880F30988EFF3148002213B
:100C2000084380F31488BFF36F8F00F0A1F8000031
:100C3000E0040020084B9B6883420BD1EFF305834F
:100C400043B1064B5A6842F080525A605A6A22F405
:100C500000425A6205F099BB9004002000ED00E0CC
:100C6000094A93686FF00A01D966084998664B688B
:100C700043F080534B60002383F31188BFF36F8FE1
:100C80009368D86E704700BF9004002000ED00E02C
:100C900012498A684FF030001044EFF3098C80E865
:100CA000F01F202080F31288BFF36F8F0C4F4FF09E
:100CB00000664A698A603E604FF064041419206837
:100CC000084C2060906E0023936680F3118802F137
:100CD000300090E8F01F8CF30988704790040020E2
:100CE00004ED00E0180300201EF0040F0CBFEFF32A
:100CF0000880EFF30980816911F8021C0229FFD0F6
:100D000001B504F04DFB01BD40B2002807DB044AE9
:100D10004109012300F01F00834042F82130704751
:100D200000E100E0054B420900F01F0053F82220CB
:100D3000012303FA00F01040704700BF00E100E01B
:100D400040B20028A8BF00F1604001F10101B8BF26
:100D5000064B4FEA4111ACBF00F5614000F00F00B7
:100D6000C9B2B4BF195480F80013704714ED00E005
:100D70000F4A08B50F4B22F07F029A60BFF34F8FE6
:100D8000BFF36F8FD3F8882022F47002C3F8882055
:100D9000EFF3148323F0040383F31488BFF36F8FFE
:100DA00002F036FD03F0DCFB00F058F802F07EFDA7
:100DB0000000000000ED00E042F8203C009B42F8FB
:100DC0001C3C0A49019B42F8183C029B42F8143C27
:100DD00021F001014FF0807342F8043C42F8081CF6
:100DE0000023203A02658366704700BFB106000009
:100DF000084B9860084B406E1860104681F30988D4
:100E0000002163B681F31188BFF36F8F00220023A6
:100E1000FFF74EFC90040020180300200149102227
:100E20000A60704710ED00E072B6404080F3118810
:100E3000BFF36F8FBFF34F8F30BF62B6BFF36F8FBB
:100E4000704700BF72B6494081F31188BFF34F8FDE
:100E500020BF80F3118862B6704700BF04480023AA
:100E60002021C2180133302B82F80013F9D17047CA
:100E700000E100E001B5EFF30580A0F110004FEABA
:100E8000C0000449014409C99847BDE8014002492E
:100E9000084700003C6600006909000008B5024BE5
:100EA0001B689847002008BD1C030020034B044A20
:100EB0001860937843F00203937070471C0300207E
:100EC0000400002008B50649064821F00701C1F1D9
:100ED000005202F5003203F0ECFF002008BD00BF15
:100EE0002716002020030020024B0122C3F84025D2
:100EF0000020704700E0014020B1034B800143F027
:100F000001031847704700BFC0670000084B70B569
:100F1000C31A0D4607499B10044659430648402210
:100F200004F06EFA2B4601462046BDE87040184793
:100F300040030020B76DDBB68865000073B50C4C2C
:100F40000C4A4023041B00930D460B460A49A4108B
:100F500061430646094804F080FA011E05DA30466E
:100F60002B4602B0BDE87040184702B070BD00BF0C
:100F700040030020C7540000B76DDBB68865000051
:100F800010B54FF02003EFF3118483F31288BFF301
:100F90006F8F074A136823F00201DB07116002D448
:100FA000012004F0ACFF84F31188BFF36F8F10BDF4
:100FB00090030020002270B5012104461046FFF77F
:100FC000BFFE114801F03AFB104B984218D120693E
:100FD00000F09CF901F044FB26690D49304603F00E
:100FE000F5FF00280BDB012535642469084904F16D
:100FF0001C0003F0EBFF002801DBE564002070BD5E
:101000006FF00400FBE700BF491000000000AD0BCB
:10101000E867000070B501460C2309484B43C4182B
:10102000D4E90E56403300221844A26304F0D5F9E7
:101030002DB132462B460348BDE87040184770BDBD
:101040004003002088650000012810B504460AD03E
:1010500004280CD078B9084B1B6C5B070BD1BDE89A
:101060001040FFF7D7BF00F05FF92046F7E7BDE873
:10107000104000F067B910BD4003002008B54FF0E4
:101080002003EFF3118183F31288BFF36F8F124AAD
:10109000136843F002001060DA0708D481F3118866
:1010A000BFF36F8F0120BDE8084001F0EBBA4FF0AD
:1010B0008043D3F80C24D3F80C34DB07EED5074873
:1010C00004F08BF981F31188BFF36F8F0020BDE826
:1010D0000840FFF79FBF00BF90030020800300205F
:1010E0001FB500220123CDE90223094ACDF800D023
:1010F0006B46CDF804D004F0DFF9002805DB4FF48F
:1011000080420023684602F0C3FD05B05DF804FB91
:10111000DF540000024AC3B21C2003FB00207047CA
:1011200040030020F8B52849BFF35B8F0646012233
:1011300051E8003F41E800200028F9D1BFF35B8F60
:1011400033B9224922484B60CB608A6003F051FFDB
:10115000731E012B1DD804F0C9FF0446D0B91D4BE6
:101160001B78BBB14FF080430222C3F80823054629
:101170004FF08047D7F81824D7F81834D20313D586
:101180009B0701D0012E0FD1C4B185F31188BFF3A5
:101190006F8FF8BD4FF02003EFF3118583F31288B2
:1011A000BFF36F8F0124E3E71CB12846FFF74AFE27
:1011B000E0E70021212003F0A1F9DBE74FF08043B5
:1011C0000222C3F80423E4E73C0300202C030020A0
:1011D0005C030020DB0400200D4BBFF35B8F01227A
:1011E00053E8001F002903D143E800200028F7D16D
:1011F000BFF35B8F0AD107490023CB60064B4B60DE
:1012000003238B60054B186803F0F3BE704700BFE3
:10121000B003002098030020E11200009403002096
:1012200007B500220023CDE9002308484FF400321F
:10123000002303F061FB064B186803F032FF054BF7
:1012400000221A6003B05DF804FB00BF20010020FB
:1012500094030020B0030020F7B51C4E1C4CB76867
:101260001C4DFB683A213046984740B1002323705B
:101270002B8001F059FA0123237003B0F0BD0C213B
:101280003B696A46304698470028EFD1124A019BD5
:1012900093FBF2F3009A217803EB82031BB2B5F9BA
:1012A00000200029E4D09A1A002AB8BF524212B294
:1012B000012ADDDC094A136801390133217013600A
:1012C00003B0BDE8F040FFF7ABBF00BF28660000E9
:1012D000CA040020C804002090D00300A803002006
:1012E00008B5074804F0E7FE28B901F01DFA054BE0
:1012F00001221A7008BDBDE80840034802F0E0BDB5
:1013000028660000CA04002014000020034B044A91
:10131000186000231360034A136070479403002091
:10132000AC030020A8030020024B00221A70FFF734
:1013300053BF00BFCA040020014805F086B800BFB3
:1013400020010020024A136801331360FFF768BFD1
:10135000AC03002008B5074804F0ADFE38B10648DC
:10136000FFF7A4FD0448FFF785F9002008BD6FF0E2
:101370001200FBE7C46500007D1300000A2838B5A1
:10138000074D044604D1AB680D215B682846984799
:10139000AB6803485B68E1B29847204638BD00BFA0
:1013A000C4650000036803F01F025B09026004D0FB
:1013B000012B034818BF002070474FF0A040704732
:1013C000000300502DE9F341446800696368DFF8C9
:1013D00024814FF0FF32C3F86025C3F86425C3F8B9
:1013E0006825C3F86C2562680023012143F6C255C5
:1013F000C2F80C15C2F80435C2F8085562684FF4FB
:101400008175C2F810556268C2F820050420C2F840
:101410002405C2F82835C2F82C356268C2F81435A4
:101420006368E51DC3F8001204F10C0715F8016F9D
:101430000021304604F060F806F07F0601A801960E
:10144000FFF7B0FF019B00EB8300BD42D0F80037EF
:1014500003EA080343F4407343F00303C0F8003782
:10146000E4D1DFF8908004F1110715F8016F002135
:10147000304604F041F806F07F0601A80196FFF718
:1014800091FF019B00EB8300BD42D0F8003703EAD7
:10149000080343F00303C0F80037E6D12268D2F80E
:1014A000083523F00303C2F8083523680121C3F887
:1014B0001015236843F6C252C3F84025236840F252
:1014C0000112C3F8002223680025C3F84051D3F865
:1014D000403123684FF48032C3F804231B202A468E
:1014E000FFF72EFC1B20FFF70FFC284602B0BDE8DB
:1014F000F08100BFF0F8FCFF30B54068057B01F0DB
:101500001F04B2F5001F85B044EA451405D12046FA
:1015100004F051FD002005B030BD0025B2F5800F6C
:10152000CDE9025514D1B3F1007F0CBF042305238C
:101530008DF808300023194602AA204601F0AAFAC5
:10154000234B98423DD10121204601F043FCE1E7C5
:10155000B3F1C06F27D0B3F1007F14BF0123022382
:101560008DF80830836823FA01F111F00101E1D10F
:10157000B2F1A07FDED104F01F03620903F5E0732E
:1015800013D0012A20D1134A52F82330DB07D1D4DB
:101590000DF107052946204601F0B2FB0E4B98429B
:1015A00006D00395C6E70323DAE74FF0A042EBE746
:1015B000284601F009FC064B9842F2D06FF00B0070
:1015C000A9E76FF01500A6E751F82330FFDE00BF52
:1015D0000000AD0B000300500400AD0B10B501F08E
:1015E000E3FB044668B901F0A3FB084B98420AD11B
:1015F0000748214601F07EFB224605210620FFF721
:101600009FFB002010BD6FF00400FBE70000AD0B56
:1016100015160000420970B5034602D0012A17D002
:1016200070BD0D4E326951680029F9D003F01F03D7
:1016300001250C689D400029F2D08A682A4002D01A
:101640004B68304698472CB1236821461C46F2E788
:10165000024EE7E72346F8E7B06500009C6500000E
:101660002DE9FF4147683B7B01F01F0545EA431523
:101670000E4628460DF10701144601F041FB14F413
:10168000403F80460DD1284604F093FC3D4B9845E1
:1016900003D19DF8070001F091FB002004B0BDE8E4
:1016A000F0810023194602AA2846CDE9023301F051
:1016B000F1F9344B984214D1804503D19DF80700CD
:1016C00001F07CFBA3034ED540F206332340B3F573
:1016D000837F1AD00DD8062B18D005D8B3B1022BB2
:1016E00033D06FF01500D9E7B3F5807FF9D101232E
:1016F0000CE040F20222934229D0B3F5407F28D07B
:10170000B3F5007FEDD1022300E007238DF8083008
:1017100084F48033C3F30043E0068DF8093054BFEE
:10172000C4F34013032321038DF80A3013D57A68DC
:101730000123B340C2F80835002202A9284601F06F
:1017400061FA104B9842A8D0CBE70423DEE70523CB
:10175000DCE70323DAE7620341BF01237A68B34081
:10176000C2F80C35E8E7E3064FF0000354BFC4F3BA
:10177000401403241A4602A928468DF8084001F0B7
:1017800089F9DEE70000AD0B38B544680569E36907
:101790009847206A04F073F800280DDB2B46084AAE
:1017A00004F10801204601F083FC064B984204D165
:1017B000204601F0C1FC002038BD6FF00400FBE7BB
:1017C000051800000000AD0B70B544682368D3F81D
:1017D0000855D3F80C65204601F0BEFC314628467A
:1017E00001F052FF0546206A04F049F8204601F056
:1017F000A3FC034B9D4214BF6FF00F00002070BD8F
:101800000000AD0B0378012B08D0022B08D04BB998
:10181000054B0B6201F1100002F016BA034BF8E71A
:10182000034BF6E7034BF4E70000AD0B0100AE0BF2
:101830000200AE0B0100AD0B2DE9F04FD0F804A073
:1018400006698BB0934614221D468046BAF81830BC
:10185000D6F8249002930C460DEB0200002104F010
:1018600048FE8DF815504FF0FF324FF0FF333046F1
:1018700002F00EFA06F1100301930022002306F194
:10188000100002F005FA00273D465F4501D3002411
:1018900060E0207A020700F1828001375F4521680D
:1018A0000AD2830708D4237D80EA030202F00102F2
:1018B00003F004031A4307D025B901F06043B3F1E4
:1018C000005F17D0002300E001236268DDF808E024
:1018D00005EB020CF44565D8C00705D409EB0500FB
:1018E000039304F0F8FD039B62682A4495B2002B31
:1018F0003FD1FDB92368089363680025227A0693D7
:1019000002F001018DF81410BAF8241099424CD35A
:1019100082F00202C2F34002520105A9504601F0D2
:1019200039FC234B984209D00B33984210D16FF009
:101930000F040FE0CDF820902B46DFE74FF48042F4
:101940000198002302F0A4F958B14046FFF73CFF8C
:101950006FF00404304602F077F920460BB0BDE882
:10196000F08F336A124A9342F2D1237ADB0702D412
:1019700000250C3489E7089B9945F9D1234608E0F6
:10198000A91AD86803938DB219FA81F104F0A3FD66
:10199000039B5A689542A3F10C03F1D2E8E76FF07C
:1019A0008504D7E76FF01B04D4E76FF01B04D4E77E
:1019B0000000AD0B2DE9F047DFF808C1424F0026CB
:1019C000F3B2994202D80020BDE8F08750F82650C3
:1019D00005F07F03C5F343247F2B4FEA154508BF6D
:1019E0004FF0FF330C2D5FD8DFE805F0070D13161D
:1019F0005E5E5E5E5E5E5E194600C2F80C355D1C82
:101A00003DD10136DCE7C2F814355D1CF9D0002564
:101A10000DE0C2F80835F2E7C2F81035F5E7C2F874
:101A20000835002CF1D15C1CEBD00025062450F8C1
:101A300026A00AF4005EBEF1000F0EBFA8464FF0CC
:101A40000108002503F01F0E5B092AD0012B32D1BB
:101A50003B4603EB8E0ECAF3C11ADEF8003703EAE9
:101A60000C09230243EA8A032B4343EA480343EA6F
:101A70000903CEF80037C4E7C2F80C35D1E75D0999
:101A80000CD0012D13D1B9464FF0010803F01F0E01
:101A900008FA0EF5C9F808554546C8E74FF0A049C1
:101AA000F2E74FF0A043D4E76FF085008CE7002306
:101AB000C3F80835FFDE0EF5E07E002353F82E3024
:101AC000F8E700BFF0F8FCFF0003005070B50329F1
:101AD00004691CD80F4B58560F4B5E560F49B04245
:101AE00002F1080201DD002070BD031D04EB430379
:101AF0002569B3F901301B116B4393FBF1F501FB31
:101B0000153342F8085C42F8043C0130E7E76FF017
:101B10008500E9E76F6B00006B6B000040420F002F
:101B2000F0B546680569336885B0044698470028D3
:101B30002EDB6B680DF107029B680F21204698474A
:101B4000002825DB9DF80730332B3FD1327BD707A8
:101B50000BD5204B44F6161142F28B40C3E900012D
:101B60001D4949F22D26C3E90261930712D40026CC
:101B7000CDF809608DF80D6007238DF808306B688B
:101B800002AA5F68202106232046B84700280BDA06
:101B900005B0F0BD6B681E6980231A461E212046E1
:101BA000B0470028E3DAF3E70A4B1B682B616B6848
:101BB0003246DB682321204698470028E8DB6B6823
:101BC0004722DB68202120469847E1E76FF01500A7
:101BD000DEE700BF4C00002094B6010010B543685A
:101BE0000469586804F067FA18B1034B6360002079
:101BF00010BD6FF01200FBE7586900000B29F0B52B
:101C000004D807291BD86FF08500F0BD0C29FAD144
:101C10000169B1F90A30002BB8BF0733DB10193363
:101C20001BB21360B1F90A30594201F0070103F009
:101C3000070358BF4B4212494B43536010E00B2936
:101C400018BF083900690F4D19BFC9B20C460224EC
:101C50000021043040F2DC57A14202F1080201DD0C
:101C60000020D2E730F8113013FB07F393FBF5F6B1
:101C700005FB163342F8086C42F8043C0131EBE7EF
:101C800048E8010040420F00F8B544680669E06981
:101C900004F011FA002837D01D4B7363638CE069A0
:101CA00094F8201043F480320769D0F808C03D68EA
:101CB00013F0010F4FF0010303FA01F314BF2B439C
:101CC00025EA03033B60DCF80030984700280FDB6F
:101CD00094F820300F48012202FA03F3C6E9080302
:101CE000E0698368DB6906F11C0113B96FF0040039
:101CF000F8BD98470028F9DB04F11C004FF0B861EB
:101D0000BDE8F84004F026B86FF01500F0E700BF1A
:101D1000AF5D00008F5D0000014B01221A6070472B
:101D200000C000400C2903690BD15B6A06490748D3
:101D30004B4393FBF0F100FB113311605360002023
:101D400070476FF08500704790D0030040420F004D
:101D5000044B00690022C3F80021D3F8003101F0E0
:101D600073BF00BF00C000407FB50569AB6A63B3B5
:101D70003A2901D00C292BD105F110064FF0FF3282
:101D80004FF0FF33304601F0A9FE134B0193A86AD0
:101D90000323002469460394029303F02AF94FF0C9
:101DA000FF324FF0FF33284601F072FFA86A03F0BC
:101DB00078F90A4BD3F808256A6201225A60304646
:101DC00001F006FF204604B070BD6FF00A00FAE78C
:101DD0006FF08500F7E700BF191D000000C000404C
:101DE00010B504690020FFF795F9A0624FF0FF32AB
:101DF0000021204604F0A0F904F1100004F095F948
:101E0000002201210C20FEF79BFF0C20FEF77CFF37
:101E1000024B0122C3F80423002010BD00C0004083
:101E2000074BD3F8082142B10020C3F80801D3F8CA
:101E30000821D3F818350B7070474FF0FF3070470A
:101E400000200040024BD3F88004C3F880047047A0
:101E50000020004070B54B79012B24D0032B1FD1FB
:101E600010268B79032B1BD1CC79CCB90A79012AA6
:101E70001BD0022A1BD09AB914460B68B3F5164F33
:101E800066D031D8B3F5165F64D01AD8B3F5966F23
:101E900062D00ED8B3F5967F61D0B3F5167F61D0CE
:101EA0006FF0850053E00026DBE74FF480740E22CC
:101EB000E3E7B3F5166F58D0B3F5965FF0D1354B25
:101EC00039E0B3F5E14F53D007D8B3F5615F51D096
:101ED000B3F5964FE4D1304B2DE047F61225AB42D7
:101EE000DED14FF4000326E0B3F5613F45D011D8B1
:101EF000B3F5963F43D008D84DF6C025AB4240D04D
:101F0000B3F5614FCCD1254B15E0B3F5E13FC7D117
:101F1000234B10E0B3F5612F36D007D8214DAB42EB
:101F200034D0B3F5E12FBBD11F4B04E01F4DAB42C2
:101F3000B6D14FF0805305691D4832432243C0F8A3
:101F40002435C0F86C2503C985E80300002070BD66
:101F5000184BF0E7184BEEE74FF49E23EBE74FF4F6
:101F6000A033E8E74FF41C33E5E74FF41D23E2E725
:101F7000124BE0E74FF46C13DDE7114BDBE7114B3D
:101F8000D9E74FF46503D6E70F4BD4E74FF08063F2
:101F9000D1E700BF00B0130000A04E0000F0EB003E
:101FA00000E0D70190D0030000705F0740420F00AF
:101FB0000020004000509D000050270000F07500F8
:101FC00000B0AF0300903A0100D0BE0EF8B50E4647
:101FD00004F08CF81A4D78BB64240127BFF35B8FA3
:101FE00055E8003F002B03D145E80072002AF7D1E5
:101FF000BFF35B8F07D021200021013C02F07EFA65
:1020000014F0FF04EAD10F4C0023C4F81C31D4F8BB
:102010001C310123A360C4F81C654FF47A76D4F810
:102020001C3123B9012003F00EFF013EF7D101233B
:10203000E36000232B60F8BD01232B60E3E700BFC2
:102040004C04002000200040F7B5134C436807699A
:102050000021C4F800151E68054601AA304603F0A9
:102060001EFC002815DB019B326819791868FFF700
:10207000A1FC00280DDB39462846FFF7EBFE40B9EE
:102080000423C4F80035C4F80801D4F8083101234A
:10209000236003B0F0BD00BF0020004070B50123F5
:1020A00083400E4ABFF35B8FDC4352E8001F01EA16
:1020B000040542E80056002EF7D1BFF35B8F4FF4C2
:1020C000803282400648C0F80823BFF35F8FBFF319
:1020D0006F8F0B4214BF0120002070BD54040020FC
:1020E0000010014070B40E49D1E90034D01AC31871
:1020F00044F1000422F07F46C1E90034A6F5001344
:10210000B3F5400F09D2074B1B681A0A1B069C192E
:10211000054B42F10005C3E9004570BC02F0F6BA78
:1021200068010020580400207001002011B3BFF3A3
:102130005B8F0123104A834052E800CF4CEA030C26
:1021400042E800C10029F7D1BFF35B8F0B4A4FF47F
:1021500080338340C2F80433094BBFF35B8F1B68A5
:10216000BFF35B8FC340DB0742BF064B4FF4003227
:10217000C3F80021704700BF540400200010014044
:102180005004002000E100E00D4B1868010A000631
:10219000BFF35F8F0B4BD3F80435181841F10001E2
:1021A000B3F5801F0AD2084BD3E90023904271EBAC
:1021B000030303D210F1807041F10001704700BFAA
:1021C0005804002000100140700100202DE9F04F5C
:1021D00085B016461F469DF840A00446FFF75EFFF7
:1021E0000190FFF7D1FFB04271EB070354D23E4B91
:1021F000301A67EB0101984271F100014FD23B4B5D
:1022000003EB0413D3E902239F4208BF96425ED03A
:1022100037494FF4803804F1500508FA04F8AD004E
:10222000C1F848832046ADB203F000FE26F07F4B94
:1022300005F1804504F5A87305F58835DC464FF0B7
:1022400003090293029A2CF07F4341F82230C1F82F
:102250004483D1F80435274A6FF00200C01A604465
:1022600020F07F40904232D9286868B1D1F8043517
:102270000393A3EB0B0020F07F40B0F5000F26D9AD
:10228000204603F0D3FD039BBAF1000F07D109EB01
:10229000030C09F10109D5E7BAF1000F09D06FF07D
:1022A000150520460199FFF741FF284605B0BDE816
:1022B000F08F0123104ABFF35B8FA34052E8000F59
:1022C000184342E800010029F8D1BFF35B8F0749AA
:1022D0000E98230101EB0412C8500F9B5360C2E912
:1022E00002670025DDE700BF0100800058010020E3
:1022F00000100140FDFF7F00500400207FB51C4C02
:102300001C4BC4F80833C4F848331B4B00254FF06E
:10231000FF304FF0FF31C4F80855C3E902014FF414
:102320008033C4F80433154B02264FF400320121E8
:10233000C4F804631120C3F880212A46FEF700FD8B
:102340001120FEF7E1FC0E4A0123A3602360136015
:102350000C4B0D4A0093CDE9015500232846FFF7A9
:1023600035FF3046FEF7DEFE284604B070BD00BFE4
:102370000010014003000F005801002000E100E0C0
:1023800054040020E5200000FFFF7F002DE9F74303
:102390002F4CD4F8043399070BD5D4F8043143B14A
:1023A0002C4A0023C4F80431D4F8043113680133F3
:1023B0001360D4F80433DA032AD5BFF35B8F264BBE
:1023C00053E8002F22F0010143E800100028F7D164
:1023D000BFF35B8FD30702D4D4F84031C3B10025DB
:1023E000C4F84051D4F84031FFF7CEFE4FF020033F
:1023F000EFF3118283F31288BFF36F8F174BD3E98A
:102400000267B042B94106D282F31188BFF36F8FE1
:1024100003B0BDE8F0834FF0FF384FF0FF39C3E958
:102420000289D3E900101D604FF48033C4F84833AB
:10243000C4F84051D4F8403182F31188BFF36F8F54
:102440000029E5D0009032463B4628468847DFE722
:1024500000100140580400205004002058010020C2
:1024600030B5431C124C85B005D08442A8BF044649
:10247000012CB8BF0124FFF787FE0E4B0C4DD3E9AA
:102480000013401AB0F5000F10D22218AA4228BF3C
:102490002A4652184FF0000007490091CDE901008B
:1024A00043F10003FFF792FE05B030BD2A46F0E786
:1024B000FFFF7F0068010020E520000008B5FFF75E
:1024C00063FE024B1B68C01A08BD00BF68010020F4
:1024D0004FF08053D3F830210D2A55D14FF0804171
:1024E0000022C1F80C21C1F81021C1F83825304A6A
:1024F000D3F80404C2F82005D3F80804C2F8240570
:10250000D3F80C04C2F82805D3F81004C2F82C053F
:10251000D3F81404C2F83005D3F81804C2F834050F
:10252000D3F81C04C2F84005D3F82004C2F84405CF
:10253000D3F82404C2F84805D3F82804C2F84C059F
:10254000D3F82C04C2F85005D3F83004C2F854056F
:10255000D3F83404C2F86005D3F83804C2F864052F
:10256000D3F83C04C2F86805D3F84004C2F86C05FF
:10257000D3F84434C2F87035D1F80034DB0709D5FC
:102580006FF00103C1F800344FF08053D3F83031BD
:102590000D2B0CD14FF08053D3F834313BB14FF0B9
:1025A0001023D3F808224FF08043C3F85825704712
:1025B00000C0004030B50468CCB1BFF35B8FB4FA03
:1025C00084F3C3F11F03DBB201229A4024EA020222
:1025D00050E8005FA54204D140E8002CBCF1000F98
:1025E000F6D1BFF35B8FE6D102480B7030BD0248D5
:1025F000FCE700BF0000AD0B0200AD0B10B5036897
:10260000CB40DB0714D401238B400268BFF35B8F00
:1026100043EA020150E8004F944204D140E8001C14
:10262000BCF1000FF6D1BFF35B8FEED1014810BDB6
:102630000148FCE70000AD0B0400AD0B054B1A7917
:102640002AB95A71012218601A7103487047034869
:10265000704700BF5C0400200000AD0B0C00AD0B08
:1026600008B5074B1B682BB10020FEF75BFB08B9D0
:10267000FEF74AFB4FF080430022C3F8182508BD3F
:102680005C04002010B510B1012840D010BD4FF0FF
:102690008043D3F81814D3F81824CC031ED5900720
:1026A00002D0002003F0D1FB4FF080430022C3F89A
:1026B0001825022008224FF4827303F18043002181
:1026C000196002F180421C6801241460154A1268E6
:1026D0000AB34FF08043C3F80403D7E7D3F81424B8
:1026E000D107E1D5D3F81C249207DAD10D4A12683C
:1026F0001AB10222C3F80423C8E7D3F80421002A40
:10270000FBD00022C3F80421D3F80431BEE7002235
:102710004FF48073D1E71A68002AFCD019601B6857
:10272000B4E700BF5C0400204FF08043D3F80C14E2
:10273000D3F80C24C80322D5D10720D5D3F8182408
:10274000D2031CD5104A517901F0FF00C9B9C3F872
:102750000C01D3F80C11012151711961126822B1D9
:102760000822C3F8042309487047D3F80C21002A33
:10277000FBD00022C3F80C21D3F80C31F3E7044856
:1027800070470448704700BF5C0400200000AD0B98
:102790000500AD0B0B00AD0B10B54FF08043D3F827
:1027A000002152B10020C3F80001D3F8002101221A
:1027B000C3F80823164B1B6898474FF08043D3F8A3
:1027C00004215AB10022C3F80421D3F804210222C3
:1027D000C3F808230E4B01201B6898474FF0804335
:1027E000D3F80C2192B1D3F8042312070ED500229E
:1027F000C3F80C21D3F80C110821C3F80813044BBB
:102800005A71BDE810401B680420184710BD00BF76
:102810005C040020036803F01F025B09026004D01F
:10282000012B034818BF002070474FF0A0407047AD
:1028300000030050034A430900F01F00D35C184412
:10284000C0B27047B46B000070B50546FFF7F2FFE9
:102850000C4C08300E4634F81030DA0508D5C3F3B6
:10286000432304EBC302284654F833305268984798
:10287000A3682BB1E26831462846BDE8704018478E
:1028800070BD00BF6400002010B5FFF7D3FF124AEF
:10289000083032F81030D9051CD5C3F3432123F496
:1028A000F85322F8103002F10E04002034F8023FF1
:1028B00013F4807F03D0C3F3432399420AD001303D
:1028C0002A28F3D1002342F831300448BDE81040F3
:1028D000FFF794BE10BD00BF64000020D0000020B0
:1028E00008B5FFF7A7FF034B083033F81000400B83
:1028F00008BD00BF6400002008B5FFF79BFF034B35
:10290000083033F81000C0F3401008BD6400002008
:10291000034611F0010010B5CCB20DD1A207C4F3EB
:10292000400012D5094AD2F820055860C2F82005A7
:10293000003818BF012008E04FF0A041D1F8202551
:102940001A60C1F82025002AE8D010BD000300500D
:10295000F0B5054600200446012607468C420BD1FF
:10296000114BD3F87C2132B10022C3F87C21D3F87B
:102970007C3140F00040F0BDE3B29B0003F5807273
:102980009B0806FA03F31D420BD002F1804202F5C8
:10299000C042D2F800C0BCF1000F02D0176012682C
:1029A00018430134DAE700BF0060004008B5FFF7C4
:1029B00041FF044B083033F8100080F00200C0F3F0
:1029C000400008BD6400002010B50446FFF794FFE6
:1029D000C0B12046FFF7EAFFA0B12046FFF780FF15
:1029E0000B4A01238340C2F8083303B29B0003F172
:1029F000804303F5C043D3F8102522F00302C3F847
:102A0000102510BD20460021BDE8104003F0C2BAD9
:102A10000060004073B50446FFF70CFF184E00F14C
:102A2000080536F81530DB0727D52046FFF7CCFF21
:102A30002046FFF761FF40B12046FFF751FF114BE1
:102A400000F5A270002243F820202046FFF71CFF6B
:102A5000002301A826F815300194FFF7DBFE019B47
:102A600000EB8300084BD0F80027134043F002032B
:102A7000C0F80037054802B070BD0548FBE700BF4D
:102A80006400002000600040F0F8FCFF0000AD0B87
:102A90000400AD0B2DE9F04385B0064615461F46F0
:102AA000FFF7C8FE044611B3DFF8448100F10809BE
:102AB00038F819309B0703D53046FFF71DFF18BBC8
:102AC0000023CDE900338DF80E308DF80F300DF175
:102AD0000F020B4630460DF10E0103F012FA38F8E2
:102AE000193023F0020343F0010328F8193055B3DD
:102AF0003F4B95F800C06A6804F1080033F81010E5
:102B000011F0020F02D0B2B13A481EE021F02001CC
:102B1000C904C90C23F810106AB1BCF1030FF3D833
:102B20006A6892F800E0BCF1000F11D1324A0EF54C
:102B3000A27E42F82EC033F8102022F01C0242EA96
:102B40008C0223F810204FBB2C4805B0BDE8F08361
:102B50004FEA8E0202F1804202F5C04241EA4E3154
:102B6000D2F8105525F00305C2F81055D2F81055CB
:102B700025F44F3525F44075C2F810553502D2F8CA
:102B8000108505F47C5545EA0C4545EA080541F0F9
:102B9000200123F81010C2F81055CCE7D7E90087C0
:102BA0003046FFF771FEB8F1000FCDD0104DD5E9DA
:102BB0000023904503D19F4201D1002209E0104833
:102BC0000DF10F01FFF7F6FC0C4B9842BDD19DF8BB
:102BD0000F2045F8328005EBC20308345F6035F8FA
:102BE000143043EA422343F4807325F81430ABE7F2
:102BF000640000200400AD0B006000400000AD0B3D
:102C0000D00000202DE9FF4104461646FFF712FED2
:102C1000054629B32046FFF7C9FE18B12046FFF745
:102C20006BFE18BB304F05F1080837F8183013F069
:102C30001C0F02D04B78012B18D001238DF80F30D8
:102C40000023CDE900134A1C8B1C20460DF10F0117
:102C500003F057F937F8183043F0030327F818301A
:102C6000002E3ED02046FFF7A1FE18B11F4804B049
:102C7000BDE8F08196F800C01B4F6146890001F164
:102C8000804101F5C041C1F8100505F1080037F891
:102C9000105025F02005ED04ED0C27F81050727847
:102CA000FAB1D1F81035B67823F4991323F4F85318
:102CB000C1F8103512042302D1F810E502F44032B5
:102CC00003F47C53134345EA4C35320543EA0E03C3
:102CD00002F4801245F02005134327F81050C1F884
:102CE00010350348C3E700BF640000200400AD0BAB
:102CF0000000AD0B014BC3E90201704764000020E6
:102D000010B50446FFF7F8FD50B12046FFF792FDDD
:102D1000044B083033F8103003485B0B0B7010BDC8
:102D20000248FCE7640000200000AD0B0400AD0B7E
:102D300038B5194D95F8744064BB2146542205F10D
:102D4000100003F0D6FB686E2146884212D1134C66
:102D50000023C4F87C310620D4F87C31FDF7D4FF81
:102D60004FF00043C4F804330D48012385F8743054
:102D7000EB6638BDCAB2920002F580737C2A04BFAC
:102D800003F1804303F5C04301F1010104BF1C605E
:102D90001B68DAE70348ECE76400002000600040AD
:102DA0000000AD0B0500AD0B034B93F87400003829
:102DB00018BF0120704700BF640000200146014891
:102DC000FFF71CBCCC00002001460148FFF7F2BB16
:102DD000CC00002013B50446FFF78EFD08B3204653
:102DE000FFF7E4FDE8B12046FFF77AFD03B29B0050
:102DF00003F1804202F5C24203F1804303F5C04370
:102E0000002414601268D3F8102542F00102C3F8C0
:102E1000102521B1144A01238340C2F8043302B0C3
:102E200010BD2046FFF706FD104B083033F8103078
:102E3000C3F38203042B12D0052B12D001A80194F6
:102E4000FFF7E8FC019BD0F81015D94001F0010113
:102E50000231204602B0BDE8104003F09BB80321C8
:102E6000F7E70221F5E700BF0060004064000020A2
:102E70002DE9F04F694BDFF8A881D3F80403D8F8A7
:102E80006410C0B289B040F00040FFF761FD051E3C
:102E90002FDAC24600235AF8701F06A8CDE9063380
:102EA000FFF736FD5F4B01930DF118094FF0000B52
:102EB000019A12F8013B0192DA0803F007031AF8AD
:102EC000022022FA03F3DA071CD409F10409BBF14A
:102ED000000F14D0D8F864104FF00040FFF738FD11
:102EE000D8F8701006A8FFF713FD0028DAD125F0F6
:102EF00000450124002D79D109B0BDE8F08F4FF0D5
:102F0000010BD5E7484B5B440293D9F80010002928
:102F1000DBD0029B91FAA1F11C78B1FA81F141EA70
:102F200044142046FFF786FC0830059438F81070EA
:102F3000C808BB0819F80020039301F0070101231A
:102F400003FA01F122EA010209F8002005A8FFF7BF
:102F500061FC059A039B02F5E072C7F3820650F804
:102F600022205B073746C2F3014224D5204639466A
:102F7000D6B2FFF769FC05A80594FFF74BFC059B4B
:102F800003F5E07350F82330C3F301439E4207D1A9
:102F90000021204602F0FEFF3146204602F0FAFFF3
:102FA00005A80594FFF736FC059B012202FA03F3FE
:102FB000C0F82035A9E7022A0CD10321204602F0EF
:102FC000E9FF06F00503012BEAD139462046FFF759
:102FD0003BFCE5E702212046039202F0DBFF032ED3
:102FE000F3D0039A032ADBD1022EEDE795FAA5F37D
:102FF000B3FA83F304FA03F29B0003F1804303F571
:10300000C04325EA0205D3F81005D3F81015C0F324
:103010000520C1F30141FFF717FC6BE7006000409A
:1030200064000020C46B0000C46B000030B500F0E9
:103030001F04400911D0012812D10C4800EB840074
:103040001B02D0F800570A4C43EA82022C4042EAA5
:1030500041012143C0F8001730BD4FF0A040EDE71B
:1030600004F5E074002353F82430FFDE0003005021
:10307000F0F8FCFF10B4CC7B8A6803682CB9D1E966
:103080000041C3F80845C3F80C15C3F8242503799B
:1030900028225343054AD3582BB1006810BC40F393
:1030A0000730FDF731BE10BC704700BF640400203C
:1030B0002DE9F84390F804901C4D0746282000FBAA
:1030C00009F02E180C4696F8221069BBB1602A5000
:1030D000736086F8251086F82410E4B194F80E8009
:1030E00086F82780B8F1000F0BD120680623032251
:1030F0004146FFF79BFF6068062303224146FFF726
:1031000095FF282303FB0953627B83F82620214681
:103110003846FFF7AFFF282303FB09550448012376
:1031200085F82230BDE8F8830248FBE764040020FC
:103130000000AD0B0500AD0B036802790621C3F852
:103140000015044B282101FB0233022283F82220C0
:10315000704700BF6404002002790C4B282101FB5A
:1031600002330021996002680948C2F80803D2F8C6
:10317000000220F4BC50C2F80002C2F8001501227F
:1031800083F8222083F82410704700BF64040020D5
:1031900002029C012DE9F84FB04D90F804900468AC
:1031A000282303FB09539046002283F823204B6811
:1031B0000E4633B1CB6803F06043B3F1005F40F0DB
:1031C00085813378023B012B06D8336903F06043D5
:1031D000B3F1005F40F07A81A14BC4F80833282393
:1031E00003FB095393F8241001F0FF0239B19B68E7
:1031F000DFF870B2C4F804335846BDE8F88F18F011
:10320000140F0CBF0121002183F82410317883F8BA
:103210002010717883F82110F168D9607168196104
:1032200031695961B1689961C8F3001183F82510BB
:10323000C3F81C807378C4F88835C4F86021D4F8CA
:103240006031C4F84821D4F84831C4F82421D4F8B6
:103250002431C4F80421D4F8043118F0010318BF54
:103260000123C4F8503518F0020318BF0123C4F835
:103270004035337809EB890705EBC707032B00F2CC
:10328000A380DFE803F0799862024FF48073C4F8FA
:103290000032D7E90323C4F84425C4F84835012394
:1032A000A3604FF48011204602F0C9FE0028F8D137
:1032B000D7E90523C4F84425C4F84835282303FB7F
:1032C00009534FF480229A60DFF89CB1282202FB58
:1032D00009F218F0080AAB5805EB020013D1317857
:1032E000032910D0012940F085802160002B6ED089
:1032F000282202FB09F27168AA5821B9002A00F0BD
:10330000BB8001226261282202FB09F2A918AA5897
:10331000002A00F0B18018F0040F1CBF00228A6060
:1033200018F0400F06D1282202FB0952916841F0A3
:1033300002019160282202FB0952916841F4007158
:1033400091609268C4F8042356E7D7E90323C4F8D0
:103350004425C4F84835D7E90523C4F83425C4F812
:1033600038354FF48453C4F80032012323622823F4
:1033700003FB09530222A6E7D7E9032318F0200F25
:10338000C4F84425C4F848354FF0280315BF4FF45E
:1033900080724FF4007203FB095303FB095315BFFE
:1033A000C4F80022C4F800224FF4802202229A605E
:1033B0000123236288E7D7E90323C4F83425C4F83E
:1033C00038354FF48053CEE7DFF8A0B07EE70269CE
:1033D00002B961612649DFF89CA0204602F02FFE69
:1033E000012210F4007F18BF626110EA0A0F204921
:1033F000F3D07DE70121A160002B7FF479AF006954
:1034000018B31C4B1AEA030F7FF472AF1849204619
:1034100002F015FE10F4007F8246F2D04FF080716A
:10342000204602F00CFED4F8001280B111F40070B6
:1034300003D10122226282466261CB05E1D54FF4BD
:103440008021204602F0FBFD04E06161D9E7012202
:10345000226262614FF0000AD3E700BF64040020DB
:1034600002029C010B00AD0B0000AD0B0400AD0B84
:1034700002020400020004002821D4F8C424C4F885
:10348000C42401FB0955002185F824108AB1114993
:10349000114B12F0010F14BF8B469B46013112F005
:1034A000020F18BF8B4612F0040F0C4A18BF934648
:1034B000A2E618F0400F7FF49FAE3946204602F096
:1034C0007CFD054A002808BF934695E6DFF810B05A
:1034D00092E600BF0000AE0B0100AD0B0200AE0B88
:1034E0000A00AD0B70B55C4D5C4C86B002212846DD
:1034F00002F0A5FD4FF400710646284602F09FFD3C
:10350000D8B1E6B9A368C5F808330223A360A3685D
:10351000C5F804334FF08071284602F090FD18B1D1
:10352000D5F800329B0503D44B4B01221A625A6135
:10353000012384F8233006B070BD002E57D0E56912
:103540006E060AD494F823303BB94449424802F04D
:1035500034FD80F0010084F8230015F0040524D127
:103560003D4B94F82520C3F86051D3F86011C3F89F
:103570005C51D3F85C1112B194F8232052B10022AF
:10358000C3F80022A260364AC3F80823354B08224C
:10359000C3F88021238CADF80430E36804932369D9
:1035A000029363690593A36903932B4AD2F8C43449
:1035B000C2F8C434980749D4590749D4DA0749D422
:1035C00094F823309B00DBB28DF8003094F825305E
:1035D0000BB984F82430E3695B0703D594F82330F2
:1035E000002BA8D0D4E9003168469847A3E74FF4F0
:1035F0008021284602F023FD94F82030A3B994F8E6
:1036000025304BB9C5F80032A360154BC5F8083317
:10361000144B0822C3F8802100238DF8043094F85D
:1036200021308DF80530B8E74FF40073C5F800324B
:1036300040F20223A36003F1CE73C5F80833A368F8
:10364000C5F804330123AB602B6274E70123BBE7A9
:103650000223B9E70323B7E70030004064040020E9
:1036600002029C0100E100E0036803F01F025B0915
:10367000026004D0012B034818BF002070474FF0B0
:10368000A040704700030050F7B5064602F001FD68
:10369000084602F0FEFC01A80196FFF7E5FF019B3A
:1036A0002E4D00EB83000C46D0F80037019440F219
:1036B0000D612B400B43C0F8003701A8FFF7D4FF82
:1036C000019B00EB83000127D0F800372B400B4310
:1036D000C0F80037042002F0B6FB092501A80194C8
:1036E000FFF7C2FF019AD0F81035D340DB0715D49D
:1036F00001A80196FFF7B8FF019B07FA03F3C0F892
:103700000C35042002F09FFB304602F0C2FC013D64
:10371000042002F098FB15F0FF05DFD101A8019409
:10372000FFF7A2FF019A01239340C0F80C35042053
:1037300002F089FB204602F0ACFC042002F083FB7F
:1037400001A80194FFF790FF019AD0F810350448C2
:10375000D34003F00103C01A03B0F0BDF0F8FCFF42
:103760000100AD0B38B54FF02003EFF3118583F363
:103770001288BFF36F8F064B9C6802F0B0FC85F394
:103780001188BFF36F8F2046BDE83840FDF752BA6D
:1037900090040020104B70B553F82040013053F8CE
:1037A0002060A64200D870BDD4E9003595B153B170
:1037B0002846984738B10028B8BF4042EB68FF2838
:1037C000A8BFFF201870EA68537843F001035370D4
:1037D0000834E6E79847FBE7FC69000008B50A4BA8
:1037E000012203201A70FFF7D5FF01F0BFF8042073
:1037F000FFF7D0FF00F026F9FCF7C2FE034A137B67
:1038000023F00103137308BDDB040020E80100204E
:1038100008B50348034A0021121A02F063FC08BDF0
:1038200058010020E004002070B51A4E1A4D1B49C3
:10383000702386B003FB006601220023CDE9042338
:103840000F22CDE902320193142303FB00554FF4FC
:10385000A0720446124B009502FB0011304600F0A6
:103860008DF8737B2C7423F0040373730D4BEE609F
:10387000013403EBC4236B600B4BBFF35B8F53E846
:10388000001F013143E80012002AF8D1BFF35B8F1B
:1038900006B070BD7801002090040020E00C0020EC
:1038A00003610000E00400208C04002080B50020AB
:1038B000A2B0FFF76FFF2A4B83F30888294C2A4EEA
:1038C00063692A4F43F4007363610025E02384F8A1
:1038D0002230E57725766576A57684F82050636AF0
:1038E00043F4E023636284F82350FDF779F9FDF790
:1038F00095FA4FF0FF33A362E36240F20113ADF893
:10390000243006ABB3601E9502F0D4FB0120FFF714
:1039100041FF0220164CFFF73DFF00F065FD154BFF
:1039200074610593012314490095CDE903534FF4C5
:1039300080623B46CDE90155204600F01FF8627BCE
:10394000064622F004022046627302F072FC28460A
:10395000FFF76AFF3A4631462046FDF749FA00BFB5
:10396000E00C002000ED00E090040020DD370000B6
:10397000E8010020C66B0000200E00202DE9FF4169
:10398000984600F15803D51DC0E916330E9B03730A
:1039900025F007050423002643730D440D9B837314
:1039A0000F46C0E9066629468660C6730446FCF7E2
:1039B000ADFF0C9B029307300B9B019320F0070097
:1039C0000A9B00932D1A43462A4639462046FDF7A6
:1039D000F3F9054B66659B6803B11B6E23662846A9
:1039E00004B0BDE8F08100BF90040020F0B587B0BE
:1039F00000250595109D04950F9D03950E9D02953C
:103A0000DDE912760D9D01950C9D00950446FFF7AA
:103A1000B5FFB6F1FF3F08BFB7F1FF3F05D056EA4B
:103A2000070305D1204600F091FC204607B0F0BD09
:103A300003493A46334604F1180000F0F1FDF4E77B
:103A4000F162000070B5224C224D86B02646AE428F
:103A500004F130040AD300F097FC1D4C1E4EAC421A
:103A600020D306B0BDE8704000F0A2BC54F80C3C76
:103A7000059354F8103C049354F8143C039354F801
:103A8000183C029354F81C3C019354F8203C0093DA
:103A900054E90A2354E90C01FFF770FF54F8303C55
:103AA0005E65D3E7D4E90A23B3F1FF3F08BFB2F163
:103AB000FF3F05D052EA0301206803D100F046FC25
:103AC0003034CCE73146183000F0AAFDF8E700BFEB
:103AD000BC670000BC670000F16200002DE9F34103
:103AE000044617461E464FF02003EFF3118883F378
:103AF0001288BFF36F8FC368334A7BB180689168C7
:103B0000884219D057EA060318D188F31188BFF309
:103B10006F8F6FF00F0002B0BDE8F081916891F9EE
:103B20000E1021610133E3609368A36088F311886C
:103B3000BFF36F8F0020EEE72169F2E791F90E10D5
:103B400090F90E309942A8BF19466FF07E0291425B
:103B5000B8BF11468B422EDD02F0DFFA0546CDE9F3
:103B600000761A482246414600F07AFB0028E1D050
:103B70004FF02003EFF3118683F31288BFF36F8FAA
:103B8000A068D0B1236821699C420AD04BB193F957
:103B90000E309942A8BF19466FF07E039942B8BF14
:103BA000194602F0BAFA40B10848314600F0BCFBB1
:103BB0006FF00A00AFE70025D1E7002DF4D186F3BE
:103BC0001188BFF36F8FF3E790040020DC0400201E
:103BD00038B5836804466BB3194A926893422CD176
:103BE000C368012B03D9013BC360002038BD4FF0EF
:103BF0002003EFF3118583F31288BFF36F8F016900
:103C0000806802F08AFA204602F08DFBA06058B16D
:103C100090F90E2022610022C26602F00AFB0948D8
:103C2000294600F081FBE0E7E06085F31188BFF3EF
:103C30006F8FDAE76FF01500D8E74FF0FF30D5E768
:103C400090040020DC04002038B504464FF0200327
:103C5000EFF3118583F31288BFF36F8F02F063FBDC
:103C600048B10022C26602F0E4FA29460748BDE8DE
:103C7000384000F059BBD4E902329A4218BF0133F0
:103C8000A36085F31188BFF36F8F38BDDC0400207B
:103C900013B54FF02004EFF3118184F31288BFF3C2
:103CA0006F8F846844B1013C846081F31188BFF355
:103CB0006F8F002002B010BD52EA030406D181F3D9
:103CC0001188BFF36F8F6FF00F00F3E7CDE900238A
:103CD0000246024800F0C4FAECE700BFDC04002012
:103CE0002DE9F04F484E85B004464FF0FF384FF0B5
:103CF000FF394FF02003EFF3118783F31288BFF3EE
:103D00006F8F256F8DB9022104F1880002F020FA2F
:103D1000002840D10023CDE90089029304F1780204
:103D200039463A4800F00AFCE3E7626F2B682367E4
:103D3000954208BF6367D4F8883043F00203C4F8A3
:103D40008830EB6823F0040343F00103EB606B68F9
:103D500087F31188BFF36F8F284698474FF02003F1
:103D6000EFF3118B83F31288BFF36F8FEB68990722
:103D700023F0010219D4EA60D4F8883023F002035A
:103D8000C4F888308BF31188BFF36F8FDB05B0D494
:103D900000F032FBADE704F1800500220121284646
:103DA00002F014FB0028F8D1B4E7306823F00303D5
:103DB000EB600028E0D00027D0F800A03B460028A8
:103DC000DAD04268954201460CD101689FB9726809
:103DD0003160824200D1716040F8083BFFF734FF48
:103DE00039460023BAF1000F0BD0DAF80020504614
:103DF0000F469246E3E739607268824208BF7760F7
:103E0000EAE75246F3E700BFB0040020DC040020DC
:103E1000F8B5C3689A0704460F46C3F340062CD48E
:103E20005B071AD40B680BB983680B60E368DD0786
:103E300044BFA3683B603D684CBF02260126002DAD
:103E400038D01E4B9B68AB420AD0D5F88830D807D3
:103E5000C3F3800214D46FF0120600233B6024E009
:103E600002F044F9D5F888300028F0D1D907C3F31F
:103E7000C002F0D552B15B0708D46FF00F06ECE733
:103E8000002AFAD1C3F3C003002BF6D1002323602C
:103E90006B6F63B9C5E91C44284602F064F9E36816
:103EA00043F00403E3603B68A3603046F8BD1C6048
:103EB0006C67F1E76FF01506CFE700BF90040020B4
:103EC0000146014802F06AB978020020F0B589B0D5
:103ED00004460020C4E91C000E9D04F17800C4E9EA
:103EE0001E0004F18000C4E920001DB328790028D9
:103EF00040F2011008BF0120C4F8880000204FF0F4
:103F0000FF364FF0FF37CDE90330CDE90100CDE9B1
:103F10000667094B00942046FFF768FD25B1296824
:103F200011B1204602F0E8F8204609B0BDE8F040A3
:103F300002F0E5B80120DFE7E13C0000C3897F2BF8
:103F400012D80A4B1B6863B1094B90F90E201B680D
:103F50009A4209DB437BDB0606D1064BC31A18BF26
:103F6000012303F0010070470023FAE7C00400209A
:103F7000BC04002078010020044BC01A044BC01080
:103F80005843044B01221A54704700BF58020020C6
:103F9000ABAAAAAADC04002070B50E4B0E4C1E7C06
:103FA00006EB460304EBC3040546204602F031FA53
:103FB0000A4B002228469A55FFF7C0FF48B1084B2C
:103FC00008491A68013A2046D317BDE8704000F04E
:103FD00027BB70BD9004002058020020DC040020A4
:103FE000C0040020793F000038B50D4D2B4653F832
:103FF000184F9C4200D004B9EC68AB6838B95A7BC2
:10400000D20604D1A26912B9DA897F2A05D89C4266
:1040100002D02046FFF7C0FF23466B6138BD00BFCA
:104020009004002070B590F90D20437B002A0146D2
:1040300004DA03F07F03437302F0C1F84B7B154AA7
:1040400063F07F0310464B7350F8183FD4698342E6
:1040500008BF002323B9C1E900042160D1610CE04D
:1040600091F90E5093F90E60B5420ED0AE420CDDC0
:104070005868C1E90030016059609068431A58429D
:10408000BDE870405841FFF7AFBF9C42E3D01B68CA
:10409000E0E700BF9004002070B490F90D30427B3F
:1040A000002B29DBD30627D183692BBB134962F090
:1040B0007F0242730A4652F8184F944218BF2346B3
:1040C000CC6923B9C0E900242060C8610CE090F9F4
:1040D0000E5093F90E60B5420AD0AE4208DD5A6820
:1040E000C0E900321060586070BC0020FFF77CBF50
:1040F000A342E7D01B68E4E770BC7047900400203F
:1041000008B590F90D20437B002A014604DA03F03C
:104110007F03437302F053F8044B9868431A5842E4
:104120005841BDE80840FFF75FBF00BF9004002082
:1041300070B515461C46064602F053F8B4F1FF3F31
:1041400008BFB5F1FF3F08D02A46234606F1180004
:104150000249BDE8704000F063BA70BDF162000032
:104160002DE9F041002A437B0E460CBF10210821A7
:10417000194204460AD10B43DD0903F09F0211D115
:104180004273082914D00120FFF72EFF1B4B9B68B8
:10419000A3422CD1EFF305834BBB3046BDE8F04181
:1041A000FCF75EBD03F01F03437302F008F8E8E775
:1041B000A36813B1204602F00AF804F1180002F0D7
:1041C00028F904F158074FF00008A56DBD42DAD078
:1041D000002DD8D0284601F0FAFF05F1180002F0B2
:1041E00018F9C5F86C802846FFF756FFEDE786F30F
:1041F0001188BFF36F8FBDE8F08100BF90040020ED
:1042000038B54FF02003EFF3118583F31288BFF325
:104210006F8F104B104A9C681068A04206D1FFF7C0
:10422000BBFE85F31188BFF36F8F38BD00211B7C67
:1042300011600A4AD35C002BF3D02046FFF77EFEC4
:104240000028EED0637BDB0602D12046FFF7EAFEB2
:104250002046E4E790040020B8040020DC0400209D
:1042600070B50C480C4D86682E600C461146DDE991
:1042700004234FF02006EFF3118586F31288BFF375
:104280006F8F8068FFF754FF2046BDE87040FCF751
:10429000E7BC00BF90040020B8040020F8B5044635
:1042A0004FF02003EFF3118683F31288BFF36F8F73
:1042B000437BDA0649B219D18569BDB903F07F03A2
:1042C000437301F07CFF437B164A817363F07F03E5
:1042D0004373134653F8180F984218BF0546D06928
:1042E0005DB9C4E900300460D46111E0A17300201D
:1042F00086F31188BFF36F8FF8BD95F90E70B94240
:104300000BD08F4209DD6B68C4E900531C606C6000
:104310000120FFF769FE0120EAE7A842E1D02D68FD
:10432000DEE700BF9004002049B9EFF3058030B903
:10433000054B5A699B689A4201D0FCF791BC81F306
:104340001188BFF36F8F70479004002010B54FF0B5
:104350002002EFF3118482F31288BFF36F8F427B48
:10436000510704D484F31188BFF36F8F10BD22F07E
:1043700004024273FFF790FE21460248BDE8104058
:10438000FFF7D2BFDD0400204FF02003EFF31181CF
:1043900083F31288BFF36F8F044B9A68D37B013B82
:1043A000D37381F31188BFF36F8F7047900400209F
:1043B00010B54FF02003EFF3118483F31288BFF39D
:1043C0006F8F084B9A68D37B0133D3730020FFF7BC
:1043D0000BFE84F31188BFF36F8FBDE8104001F02E
:1043E000CABF00BF90040020024B03F11802C3E9CA
:1043F0000622704790040020F8B54FF02003EFF339
:10440000118583F31288BFF36F8F19498868437B46
:1044100003F07F03437301F0D2FE8B685A7B08469A
:1044200062F07F025A7350F8182FCC69824208BF9D
:10443000002222B9C3E900042360CB610CE093F9A8
:104440000E6092F90E70BE420ED0B7420CDD51687C
:10445000C3E900210B6053600120FFF7C5FD28462A
:10446000BDE8F840FCF7FCBBA242E3D01268E0E7ED
:104470009004002050EA01032DE9F04105460E4664
:1044800003D1FFF7B9FF00202CE0831C71F1FF334B
:104490002ADB01F0D4FF2C184FF02003EFF3118832
:1044A00083F31288BFF36F8F114F124BB8681860F7
:1044B000FFF726FEB86810492A463346183000F048
:1044C000AFF8BA68537B43F0100353734046FCF7D0
:1044D000C7FB01F0B4FF201A63EB0303012873F15B
:1044E0000003D0DBBDE8F0816FF00104241AD3E7AC
:1044F00090040020B8040020F1620000B1F1FF3FF9
:1045000008BFB0F1FF3F08B506D1084B986801F02D
:10451000A0FE4FF0FF3008BDFFF7ACFF4FF47A73F9
:1045200080FB0303C00B40EA4340F4E79004002003
:10453000014B9868704700BF90040020D3B5DDE9B7
:104540000667089CCDE90067FFF78AFE1CB1034BA4
:104550009B685B69236002B0D0BD00BF900400205F
:1045600008B50648064A0749121A01F0BDFDBDE824
:104570000840054A0549064801F0B6BD0000002084
:1045800058010020086C000000000000086C0000CA
:1045900000000020034B1B680BB9FDF78FBF002004
:1045A000704700BFC404002010B50E4B1C689C422D
:1045B00004D1FFF7EFFF6FF0004010BDFFF7EAFFF7
:1045C000002CF8D0D4E904321B1A62EBE072B3F18C
:1045D000004F72F10001EEDA002AACBF184600204D
:1045E000EBE700BFDC00002030B570B10B4B5B681F
:1045F00098420AD0036843B1D3E90421D0E90445C5
:10460000121941EB0501C3E90421D0E9003213601E
:104610005A600023C0E9003330BD00BFDC00002039
:10462000B3F1FF3F08BFB2F1FF3FF8B504461D46A6
:1046300016465CD081604FF02003EFF3118783F3BF
:104640001288BFF36F8F013275F1FF3324DA2D49E1
:10465000D1E900206FF001039B1A4FF0FF3262EBAB
:1046600000009E1B60EB0500012E70F1000301DAD3
:1046700001260020C4E90460234ED6F800C0756806
:10468000B44508BF4FF0000CBCF1000F0DD1C4E9D8
:1046900000652C6074601CE0FFF77CFF013645F17B
:1046A0000005361845EBE070E4E7DCE90420D4E9C6
:1046B0000431934271EB000E1ADAD21ADCF804309E
:1046C00060EB0100CCE90420C4E900C31C60CCF815
:1046D00004403368B34206D09C4204D1FFF764FF24
:1046E0000021FDF7BDFE87F31188BFF36F8FF8BD82
:1046F0009B1A61EB0001AC45C4E90431C7D0DCF87A
:1047000000C0C1E770020020DC0000202DE9F84F56
:104710004FF02003EFF3118C83F31288BFF36F8FF8
:10472000DFF8B0A0DFF8B0902C4FC9F80000DAF83D
:1047300000000024504508BF00200025D7E90021D3
:10474000D9F80030E04680B3D0E9046C4FEAE37E4C
:10475000B3427EEB0C0B05DAF61A6CEB0E04C0E9E3
:10476000046422E0B21841EBE671C0E90445C7E9F0
:104770000021FFF739FF88F31188BFF36F8F83683B
:1047800098474FF02003EFF3118883F31288BFF3AB
:104790006F8FD9F80030DAF800009B1B5045C446F3
:1047A000C9F80030CAD1D7E900219A1841EBE37368
:1047B0000024C7E90023C9F80040FFF7F5FE2146B1
:1047C000FDF74EFE88F31188BFF36F8FBDE8F84FF9
:1047D000FFF716BDDC000020C4040020700200209A
:1047E00010B54FF02003EFF3118483F31288BFF369
:1047F0006F8FFFF7CFFE064A0346D2E90001181873
:1048000041EBE37184F31188BFF36F8F10BD00BFDC
:1048100070020020F8B504464FF02003EFF3118733
:1048200083F31288BFF36F8F026822B187F3118878
:10483000BFF36F8FF8BDD0E90A36581C46F100016E
:10484000022871F1000127D3012B76F10001BCBFD2
:10485000012316465D1E46F1FF3601F0F4FD0130DE
:1048600041F10001401946EB0101012871F10001FD
:104870003ADB01F0E8FD013041F100016FF0010287
:10488000401946EB0103121A4FF0FF3161EB0303AD
:1048900018492046FFF7C4FE236B01332363236AC4
:1048A00073B187F31188BFF36F8F236A204698474F
:1048B0004FF02003EFF3118783F31288BFF36F8F5C
:1048C00054F8185FA542B1D0002DAFD0284601F0B2
:1048D000DBFC0023EB6687F31188BFF36F8F28465C
:1048E000BDE8F84001F0A5BC6FF001024FF0FF33C6
:1048F000CEE700BF154800002DE9F04105461C46F3
:1049000090461F464FF02003EFF3118683F3128881
:10491000BFF36F8FB4F1FF3F08BFB2F1FF3F05D186
:1049200086F31188BFF36F8FBDE8F081531C74F1DB
:10493000FF3309DB012A74F10003BCBF012200240C
:1049400012F1FF3844F1FF37284601F062FDDDE93E
:1049500006010023C5E90A012B63034942463B4691
:104960002846FFF75DFEDBE715480000014800F030
:1049700067BA00BFCB6B00001FB5094B029302ABB7
:1049800000240093074908488DF80C404FF0FF338E
:104990004FF48062FFF79AFA204604B010BD00BFC2
:1049A000ED6B000020120020780200202DE9F04F6E
:1049B0008BB04368019383789F078246144640F189
:1049C0000981002591F80080B8F1000F00F0048102
:1049D000B8F1250F0BD04B1C02930135019B5146BA
:1049E000404698470028C0F2F5800299EAE791F81E
:1049F00001808B1CB8F1250F0293EED0002399465D
:104A00001F461F2F39D8A8F12002102A0AD8DFE844
:104A100002F02B0909310909092109090929092E7F
:104A200009091F00A8F13002092A32D9B8F12A0F6A
:104A300035D1780654F8042B00F18180002AA7BFF5
:104A400047F020079146C2F1000947F0280701E02E
:104A500047F00107029A12F8018B0292B8F1000F99
:104A6000CFD132E047F0020747F00407F2E747F002
:104A70000807EFE747F01007ECE77F2F18D8A8F1F9
:104A80003002092AD2D87E0603D50A2101FB03236E
:104A9000E0E70A2101FB092947F02007DAE7B8F12E
:104AA0002E0F05D1790600F1978047F04007D1E736
:104AB000B8F16C0F32D02AD8B8F1680F35D0B8F100
:104AC0006A0F39D0B8F14C0F36D0002B48F02002D5
:104AD000B8BF27F04007A2F16501BCBFBFB20023F9
:104AE000022901D9612A2CD1073424F007049A4EF7
:104AF00008344FF00708380763D506EB080B374634
:104B00005F4560D1AE1B3744A9EB080954E1B8F109
:104B1000740F9FD0B8F17A0F9CD0D6E73A0648BF01
:104B200047F4007747F0800794E7FE0548BF47F455
:104B3000007747F480778DE747F420778AE71346BC
:104B400088E7A8F16301122900F2CF80DFE811F0B5
:104B500013004800CD00CD00CD00CD004800CD00B1
:104B6000CD00CD00CD00CD00DF00C700CD00CD00D1
:104B70001B00CD00960054F8043B8DF81C304FF01C
:104B8000010807AEB7E754F8046B744A002E08BF5B
:104B9000164617F0400F14BF19464FF0FF3130464C
:104BA00001F071FC8046A6E7019B51462020984702
:104BB00000280FDB013FB845F6D34D44ED1BB94645
:104BC0009BE74F46F7E717F8010B019B51469847C3
:104BD000002895DA4FF0FF3528460BB0BDE8F08F7E
:104BE000390637D5BA0545BF073424F0070454F811
:104BF000040B54F8080B27F010060028B6B232DA7E
:104C0000404246F48066039307AF0A22394601F01A
:104C100046FC7206039BA0EB07074BD526F001016B
:104C2000BB4289B240F38A80B8F1000F00F0828065
:104C300016F01002039240F083809B460E4640F22D
:104C4000064116EA010203921EBF00220BF1010B7E
:104C5000039238E0FE0554F8040BCCD5B9054CBFDF
:104C600040B200B2C7E7CED17A06CCD5002BCAD16C
:104C700027F01107BEB21F469B46E0E727F010075A
:104C8000BFB20A223E0646D5B80545BF073424F018
:104C9000070454F8040B54F8080B002844D127F0FB
:104CA00016067906B6B242D5002B40D127F0170779
:104CB000BEB21F4616F0100203924AD0B8F1000FA0
:104CC00045D107F1010B31075CD4F20705D5D94571
:104CD00075DDA9EB0B02D319CB465A464CE047F0E1
:104CE000100710224FF07808CCE7782A06D1B8F1E7
:104CF000580F14BF10224FF40472C3E7019B5146B2
:104D0000252098470028FFF665AF023566E60822A1
:104D10004FF00008B6E7F90554F8040BBDD5BE0501
:104D20004CBFC0B280B2B8E727F00607BEB203930B
:104D300007AF6BE726F01106B6B29DE70E46B9E75E
:104D400038460E461F4607F1020B0746BBE73846BA
:104D5000F9E7BB4673E700BFFD6B0000F66B000090
:104D6000CDE904325146019B202098470028FFF6E8
:104D700031AF059A049B01329145F1DCA5EB0B01A3
:104D80008D189346039A32B303935146019B30200A
:104D900098470028FFF61EAF039BB8F1000F10D113
:104DA00001355E19711B8F4227DB3E460DF11C0851
:104DB00066BB2F44A9EB0B093D46B94438E03B469E
:104DC0008BE70393023551464046019B98470028E4
:104DD000039BE6DAFEE640F206410E42E1D016F011
:104DE000020F14BF2B20202016F4806F039305F1CF
:104DF0000105514618BF2D20E7E7019B51463020A1
:104E00009847002805F10105CCDAE3E6013E019B55
:104E100018F80600514698470028C9DADAE6019BDF
:104E2000514620209847002805F10105FFF6D2AE33
:104E3000A9EB0503002BF2DCD7E500BF002070478B
:104E40000FB407B504A951F8040B0191FBF718FC46
:104E500003B05DF804EB04B0704700EBC10040887C
:104E600040087047F8B50346FFF7F7FFB0FA80F047
:104E7000C0F11F0003EB800CCA00DCF81060171DA6
:104E80000C4606328DB256B9012101FA00F0D968FC
:104E90000143D960CCF81040DD539D52F8BDF100BC
:104EA0000431585AD85303EBC0009E52C5805D525E
:104EB000F4E7043A2DE9F041CC1D114424F0070435
:104EC00021F007010E1BF708B7FA87F2C2F124059B
:104ED000AD004FF000080735C2F12002ED08046074
:104EE0004146A760C4F80C80920004F1100001F064
:104EF00000FB6B0043F00103638004EBC5027B1BE6
:104F00005900A4F800805180A21924F83550A2F865
:104F10000280A35304EBC70329465A8842F00102DA
:104F20005A802046BDE8F041FFF79CBF038B13F089
:104F3000070305D10368002B0CBF00200320704736
:104F4000022B05D1408BB0FA80F0400980007047F9
:104F5000012B05D10368002B0CBF002005207047F2
:104F60000020704710B50C4600B111B96FF0150064
:104F700010BD081D00F0BAF80028F9D1A368032B72
:104F8000F6D9F3E72DE9F0410D4607461946281DED
:104F900090461E4600F0BBF8044638B13346424600
:104FA00029463846A446BDE8F0416047BDE8F08197
:104FB00010B44FF02004EFF3118284F31288BFF392
:104FC0006F8F416110BC0121FBF78CBB38B50C46DB
:104FD000054658B151B10B6843B14B6833B11C223F
:104FE000002101F086FA2C61002038BD6FF0150019
:104FF000FBE770B505460E46FFF7B4FF041E15DB50
:105000004FF02003EFF3118283F31288BFF36F8F09
:105010006B8B2C8B4FF6FF718B4204F0070407D18A
:1050200082F31188BFF36F8F6FF00A04204670BDC2
:10503000022C0CD101336B8382F31188BFF36F8F85
:105040000023224631462846FFF79CFFEEE7062C58
:1050500014D8DFE804F004131313041A0400002327
:1050600033606B683BB9C5E90066ACB902212846DC
:10507000FBF738FBDAE71E606E60F6E782F3118813
:10508000BFF36F8F6FF00404D0E782F31188BFF392
:105090006F8F6FF08504C9E782F31188BFF36F8FBC
:1050A000C4E710B54FF02003EFF3118283F31288A9
:1050B000BFF36F8F048B04F00704022C0AD0012C7D
:1050C0000CBF6FF004006FF0850082F31188BFF30E
:1050D0006F8F08E0438B013B9BB2438323B921468A
:1050E000FBF700FB204610BD2046EEE7034658B113
:1050F000426802F00302012A03D0032A04D10268A5
:1051000012B10020986070476FF015007047426838
:10511000816002F00302032A4FF0000203460CBF35
:10512000006810465A607047704710B44468C06801
:10513000A44610BC604710B40468C068A44610BC04
:10514000604707B50B88ADF800304B88ADF80230EA
:105150008B88ADF804306A4606234521FFF7EBFF44
:1051600003B05DF804FB37B501230D4601AA6021A9
:105170000446FFF7DAFF58B99DF8043065F30103E0
:105180008DF8043001AA012360212046FFF7D3FFE8
:1051900003B030BD37B501230D4601AA6021044696
:1051A000FFF7C3FF58B99DF8043065F383038DF80A
:1051B000043001AA012360212046FFF7BCFF03B0A1
:1051C00030BD37B501230D4601AA60210446FFF723
:1051D000ACFF58B99DF8043065F3C7138DF804305F
:1051E00001AA012360212046FFF7A5FF03B030BDCF
:1051F00037B501230D4601AA61210446FFF795FF4B
:1052000058B99DF8043065F342038DF8043001AAC3
:10521000012361212046FFF78EFF03B030BD37B573
:1052200001230D4601AA61210446FFF77EFF58B90C
:105230009DF8043065F304138DF8043001AA0123AE
:1052400061212046FFF777FF03B030BD37B501235A
:105250000D4601AA62210446FFF767FF58B99DF881
:10526000043065F304138DF8043001AA0123622190
:105270002046FFF760FF03B030BD13B506230C4690
:105280006A466821FFF751FF9DF801209DF8003024
:1052900003EB022323809DF803209DF8023003EBEB
:1052A000022363809DF805209DF8043003EB022360
:1052B000A38002B010BD13B502230C4601AA6E21D3
:1052C000FFF733FF9DF805209DF8043003EB022320
:1052D000238002B010BD08B50A4601234F21FFF715
:1052E00024FF08BD37B501230D4601AA60210446FD
:1052F000FFF71BFF58B99DF8043065F345138DF88F
:10530000043001AA012360212046FFF714FF03B0F7
:1053100030BD37B501230D4601AA60210446FFF7D1
:1053200004FF58B99DF8043065F386138DF80430F6
:1053300001AA012360212046FFF7FDFE03B030BD26
:1053400037B501230D4601AA62210446FFF7EDFEA1
:1053500058B99DF8043065F300038DF8043001AAB4
:10536000012362212046FFF7E6FE03B030BD37B5CA
:1053700001230D4601AA62210446FFF7D6FE58B963
:105380009DF8043065F382038DF8043001AA0123EF
:1053900062212046FFF7CFFE03B030BDFEF7E2B931
:1053A00001460068FEF7DEB908B5FBF7ABFABDE8C9
:1053B0000840FBF7D9BA00210120FFF7EFBF08B57D
:1053C000FBF76CFD002008BD0369C9B20C2201FB8C
:1053D0000233186C00F0070070474FF02003EFF322
:1053E000118283F31288BFF36F8F036803F0C00349
:1053F00043F00203036082F31188BFF36F8F70479D
:1054000070B5C9B203694FF02004EFF3118584F33E
:105410001288BFF36F8F0C2606FB0134246C14F046
:10542000C00408D0A24206D085F31188BFF36F8F65
:105430004FF0FF3070BD06FB013301221A6485F383
:105440001188BFF36F8F436803EBC1035B68984714
:105450000020EFE78022FFF7D3BFF8B5069F04696D
:10546000C9B24FF02005EFF3118685F31288BFF320
:105470006F8F0C2505FB0144256C05F0070CBCF172
:10548000010F0CD1276486F31188BFF36F8FC4E935
:105490000E23436853F8313098470020F8BD05F0DB
:1054A000C005AF4286F31188BFF36F8F0CBF6FF05A
:1054B00077004FF0FF30F1E713B580240094FFF739
:1054C000CCFF02B010BD10B40069CBB21C2403FBAA
:1054D0000400002110BC10470020FDF7D3B810468F
:1054E000FEF7B2BB08B5FBF727FFBDE80840002078
:1054F00000F005BDFBF770BE07B5030648BF81F09D
:10550000010100F07F00019001A849B9FBF74AFFB3
:10551000019A01239340C0F80C3503B05DF804FBF9
:10552000FBF740FF019A01239340C0F80835F4E7E8
:10553000F8B5066996F82430CBB945682C460122A7
:1055400054F8073B05F10C075A6014F8010F0021CD
:10555000FFF7D2FFBC42F8D1113514F8010F00213A
:10556000FFF7CAFFAC42F8D1012386F824300020AF
:10557000F8BD036993F824205AB14168182283F8D2
:10558000212008680122C26009680A60002283F8AD
:1055900024200020704700690830704710B5026968
:1055A000012992F8230038BF0121081A82F823103C
:1055B000D41D80B2203214F8013F43B1034499B2A4
:1055C0001BB2012B07DDFE2B07DCCBB2237094420C
:1055D000F1D1002010BD0123F8E7FF23F6E76FF0BB
:1055E00085007047022914BF6FF0850000207047C6
:1055F000002914BF6FF08500002070474FF005129E
:105600000223C1E9002300228A608B8170476FF07A
:10561000850070472DE9F8434468D0F8108023686E
:1056200098F821600025C3F84051D3F8403198F82C
:105630002230234429460746187AFFF75DFF636846
:10564000C3F8005562684FF0FF33C2F860356268F6
:10565000C2F864356268C2F8683562682946C2F8E3
:105660006C350136F6B2192E28BF0026A31993F81F
:105670002B20182AF5D8A31831BB9D7C2D0988F85A
:105680002160D7F804C038690CEB020302449B7C0C
:10569000127A03F00F036344C2EB42125B7BDCF827
:1056A00004C003F07F095BB25200DB4301F5AC7E1E
:1056B00092B2DB0F42EAC3324CF82E9020F8112050
:1056C00001310429CDD103E09B7CB5EB131FD6D06B
:1056D00063190121187AFFF70FFF88F822506268DA
:1056E0000123C2F800356268936022681360BDE848
:1056F000F8832DE9F0479C88DD88D0F810C0671842
:1057000015440429BFB2ADB242D8052F40D8042AAF
:105710003ED8052D3CD81889844239D8001B002674
:1057200001F1070880B202EB820E3346E044AA4240
:1057300032D208EB0E090C4611E05B0013F0FF03B8
:1057400001BF089B13F8016B0893012313EA060AB3
:1057500018BF9CF823A009F801AF0134A4B2BC42E1
:10576000EBD380B104465B0013F0FF0308BF089B36
:1057700004F1FF3404BF13F8016B0893A4B208BF0F
:105780000123002CEFD1013292B20EF1050ECEE7CB
:105790006FF01500BDE8F0870020FBE743685B6809
:1057A000D3F810350B600020704743685B6802EA4D
:1057B000010021EA0201C3F80805C3F80C15002016
:1057C000704743685B680020C3F80815704743685A
:1057D0005B680020C3F80C15704743685A68D2F81C
:1057E000043521EA03000B40C2F80805C2F80C3565
:1057F0000020704710B503695868F8B1884219D184
:105800009C6808685860A14200D198600020086038
:105810002AB15A680A609A68596002B999600020F2
:1058200010E0814206D10868206098688142EDD17D
:105830009C60EBE7044600680028F2D1002AE8D11A
:105840006FF0150010BDCA07436805D4C1F34201CB
:10585000012904D0022909D06FF0150070471B6898
:105860004FF0CC72C3F82425002070471B684FF01E
:10587000C862F7E7002201210320FBF761BA13B5E4
:10588000002101AA044600F00AF8002805DB019B6C
:10589000226819791868FCF78DF802B010BD30B590
:1058A00043681360057A446804EBC504A34202D33D
:1058B0006FF0010030BD5C798C4201D00833F0E715
:1058C0000020F7E730B589B004468DF807100DF1D8
:1058D00007011D4602910121CDE90525039107220B
:1058E00000210068A3888DF810108DF81C208268B4
:1058F00002A994680222A04709B030BD30B589B032
:1059000004468DF807100DF107011D460291012193
:10591000CDE905250391022200210068A3888DF8B6
:1059200010108DF81C2081688C6802A9A04709B06E
:1059300030BD38B50469636804F108021D68272189
:105940000723A847002804DB237A13F00F0F18BFA2
:10595000002038BD3A2901D1FFF7EBBF0329FBD066
:105960000C290CBF6FF085006FF03C00704710B43D
:105970008468A468A44610BC604730B589B061F063
:105980007F0144688DF807100DF107010291012194
:10599000606803911D46002123898DF81010CDE920
:1059A000052502A902228DF81C20FFF7E0FF09B0AF
:1059B00030BD30B589B061F07F0144688DF80710C3
:1059C0000DF107011D4602910121606823890391B1
:1059D000CDE90525002107228DF810108DF81C2037
:1059E00002A90222FFF7C3FF09B030BD1FB543680B
:1059F0008DF80120022258688DF800101B89029250
:105A00008DF80C2001A90122CDF804D0FFF7AFFFDB
:105A100005B05DF804FB10B588B043688DF8071039
:105A20000DF107010291012158681B890391CDE90D
:105A3000052107228DF81C200024022202A98DF8DE
:105A40001040FFF794FF08B010BD2DE9F0479846CD
:105A5000436888B0D3F8049093F808A08DF8041038
:105A6000002301278DF810300DF10303CDE9053730
:105A700007230E46144601AD8DF81C300222534612
:105A800002A9484602950397FFF771FFB8B99DF840
:105A9000032022EA040304EA08041C43A2420ED0B5
:105AA000022303938DF810303A46534602A9484624
:105AB0008DF804608DF805400295FFF758FF08B097
:105AC000BDE8F08770B5456806690C462846012197
:105AD000FFF749FB78B94FF42472002306F10C005C
